S0120000556C747261736F756E642E73726563E1
S11300000C9434000C9451000C9451000C94510045
S11300100C9451000C9451000C9451000C94510018
S11300200C9451000C9451000C9491010C945100C7
S11300300C9451000C9480010C9451000C945100C8
S11300400C9453000C9451000C9451000C945100E6
S11300500C9460010C9451000C9451000C945100C8
S11300600C9451000C94510011241FBECFEFD8E022
S1130070DEBFCDBF11E0A0E0B1E0E6E8FAE002C0E7
S113008005900D92A631B107D9F721E0A6E1B1E0C0
S113009001C01D92A739B207E1F70E94A3000C9496
S11300A041050C9400001F920F920FB60F92112479
S11300B08F939F9380E686BD9BB180E189278BB99E
S11300C09F918F910F900FBE0F901F9018951092D3
S11300D0C00088E58093C10087E690E09093C50056
S11300E08093C400089581E085BD80936E000895D7
S11300F082E48093810081E280936F00089521E07F
S113010020931A01E1E2F1E02DE0208322E0209324
S11301101B012AE02183FC012081222379F0DC01E8
S1130120E0911B0181E08E0F80931B018D91F0E023
S1130130EF5DFE4F80838C918111F2CF809121017C
S11301408093C600089514B880E18AB90E946700BC
S11301500E9473000E94780080E686BD7894109215
S11301608C0110928B011092200110921C011092AC
S11301701D0110921E0110921F01C0ECD0E00F2E41
S1130180FAE34F2E512C612C712CF02D0F2EF2E03E
S1130190EF2EF1E0FF2EF02D03E511E00F2EF6EC2B
S11301A0CF2ED12CF02DAA24A394B12C888188239E
S11301B00CF044C0F60180818735D9F128F48D34E0
S11301C049F0863589F13AC0863771F1873789F16C
S11301D08D36A1F560918D0170918E0180918F0112
S11301E090919001A30192010E9435022093850110
S11301F03093860140938701509388015F934F9316
S11302003F932F93FF92EF921F930F930E945702F5
S1130210C8010E947F008DB79EB708960FB6F89468
S11302209EBF0FBE8DBF0AC0B0928A01A092890101
S11302300CC010928A0110928901B8CF8091890173
S113024090918A01892B09F4B1CF8091000190919A
S11302500101892B09F4AACF60918D0170918E015F
S113026080918F0190919001A30192010E94350227
S11302702093850130938601409387015093880130
S11302805F934F933F932F93FF92EF921F930F939C
S11302900E945702EDB7FEB738960FB6F894FEBF2A
S11302A00FBEEDBF90911B0180911A01981303C0FA
S11302B0C8010E947F00109201011092000176CFC4
S11302C01F920F920FB60F9211248F93EF93FF9307
S11302D0E0911A0180911B018E1751F081E08E0F7D
S11302E080931A01F0E0EF5DFE4F80818093C60099
S11302F0FF91EF918F910F900FBE0F901F90189563
S11303001F920F920FB60F9211248F9380912001A8
S11303108F5F809320018F910F900FBE0F901F90DD
S113032018951F920F920FB60F9211242F933F939B
S11303304F935F936F937F938F939F93AF93BF93E9
S1130340EF93FF93209186003091870030939601BC
S1130350209395018091200190E0A0E0B0E0DC01C1
S11303609927882740918B0150918C01841B950B10
S1130370A109B109820F931FA11DB11D1092200183
S113038030938C0120938B012091810026FF13C0B0
S1130390B695A7959795879580939101909392012F
S11303A0A0939301B0939401E1E8F0E0908180E49C
S11303B08927808312C0B695A795979587958093D2
S11303C08D0190938E01A0938F01B0939001E1E889
S11303D0F0E0908180E48927808340918D015091E1
S11303E08E0160918F0170919001809191019091A3
S11303F09201A0919301B0919401840F951FA61FBF
S1130400B71F80931C0190931D01A0931E01B0930C
S11304101F014091160150911701609118017091CC
S1130420190184179507A607B70731F021E030E0DA
S113043030930101209300018093160190931701DA
S1130440A0931801B0931901FF91EF91BF91AF915F
S11304509F918F917F916F915F914F913F912F91D8
S11304600F900FBE0F901F901895A1E21A2EAA1B91
S1130470BB1BFD010DC0AA1FBB1FEE1FFF1FA21750
S1130480B307E407F50720F0A21BB30BE40BF50B4D
S1130490661F771F881F991F1A9469F760957095D6
S11304A0809590959B01AC01BD01CF010895AEE00C
S11304B0B0E0EDE5F2E00C9418050D891E8986E0A4
S11304C08C831A8309838FEF9FE79E838D83AE010C
S11304D0475E5F4F6F89788DCE0101960E94790245
S11304E0EF81F885E00FF11F10822E96E4E00C9462
S11304F03405ABE0B0E0EFE7F2E00C940A056C01E0
S11305007B018A01FC0117821682838181FFCCC1A1
S1130510CE0101963C01F6019381F70193FD85918B
S113052093FF81917F01882309F4BAC1853239F49C
S113053093FD859193FF81917F01853229F4B60162
S113054090E00E947004E7CF912C212C312CFFE124
S1130550F315D8F08B3279F038F4803279F08332A5
S1130560A1F4232D20611DC08D3261F0803369F424
S1130570232D216016C0832D8260382EE32DE46084
S11305803E2E2AC0F32DF8601DC037FC2DC020ED8F
S1130590280F2A3040F08E32B9F436FC81C1232D65
S11305A02064322E19C036FE06C08AE0989E200DC3
S11305B01124922E11C0EAE02E9E200D1124222E29
S11305C0F32DF0623F2E08C08C3621F4832D806811
S11305D0382E02C0883641F4F70193FD859193FFCC
S11305E081917F018111B3CF982F9F7D95549330D2
S11305F028F40C5F1F4F9FE399830DC0833631F0BD
S1130600833771F0833509F059C021C0F801808126
S113061089830E5F1F4F88248394912C530113C048
S11306202801F2E04F0E511CF801A080B18036FE83
S113063003C0692D70E002C06FEF7FEFC5010E9417
S113064065044C018201F32DFF773F2E16C028016B
S113065022E0420E511CF801A080B18036FE03C096
S1130660692D70E002C06FEF7FEFC5010E945A044C
S11306704C01F32DF0683F2E820133FC1BC0822D08
S113068090E088169906B0F4B60180E290E00E94EA
S113069070042A94F4CFF50137FC859137FE8191DB
S11306A05F01B60190E00E94700421102A9421E0B9
S11306B0821A91088114910471F7E8C0843611F00C
S11306C0893641F5F80137FE07C060817181828166
S11306D093810C5F1F4F08C060817181072E000C4D
S11306E0880B990B0E5F1F4FF32DFF763F2E97FF5C
S11306F009C090958095709561957F4F8F4F9F4F5E
S1130700F0683F2E2AE030E0A3010E94AC04882E5A
S1130710861845C0853731F4232D2F7EB22E2AE06A
S113072030E025C0932D997FB92E8F36C1F018F48F
S1130730883579F0B5C0803719F0883721F0B0C01A
S1130740E92FE061BE2EB4FE0DC0FB2DF460BF2E78
S113075009C034FE0AC0292F2660B22E06C028E044
S113076030E005C020E130E002C020E132E0F801D1
S1130770B7FE07C060817181828193810C5F1F4F36
S113078006C06081718180E090E00E5F1F4FA3017D
S11307900E94AC04882E8618FB2DFF773F2E36FE70
S11307A00DC0232D2E7FA22E891458F434FE0BC0C5
S11307B032FC09C0832D8E7EA82E05C0B82CA32C34
S11307C003C0B82C01C0B92CA4FE0FC0FE01E80D73
S11307D0F11D8081803321F49A2D997EA92E09C0C0
S11307E0A2FE06C0B394B39404C08A2D867809F09F
S11307F0B394A3FC11C0A0FE06C0B21488F4280C64
S1130800922C9B180EC0B21460F4B60180E290E002
S11308100E947004B394F7CFB21418F42B1802C0DA
S1130820982C212CA4FE10C0B60180E390E00E9415
S11308307004A2FE17C0A1FC03C088E790E002C0C8
S113084088E590E0B6010CC08A2D867859F0A1FEA7
S113085002C08BE201C080E2A7FC8DE2B60190E009
S11308600E947004891438F4B60180E390E00E9479
S113087070049A94F7CF8A94F301E80DF11D8081F6
S1130880B60190E00E9470048110F5CF222009F493
S113089042CEB60180E290E00E9470042A94F6CF22
S11308A0F6018681978102C08FEF9FEF2B96E2E1DC
S11308B00C942605FC010590615070400110D8F796
S11308C0809590958E0F9F1F0895FC016150704094
S11308D001900110D8F7809590958E0F9F1F089571
S11308E00F931F93CF93DF93FB01238121FD03C05B
S11308F08FEF9FEF2CC022FF16C0468157812481C1
S113090035814217530744F4A081B1819D012F5FC3
S11309103F4F318320838C93268137812F5F3F4F54
S11309203783268314C08B01EC01FB010084F1851D
S1130930E02D0995892BE1F6D80116968D919C91AD
S11309401797019617969C938E931697CE01DF9175
S1130950CF911F910F910895FA01AA27283051F1E0
S1130960203181F1E8946F936E7F6E5F7F4F8F4FDC
S11309709F4FAF4FB1E03ED0B4E03CD0670F781F3B
S1130980891F9A1FA11D680F791F8A1F911DA11D20
S11309906A0F711D811D911DA11D20D009F4689459
S11309A03F912AE0269F11243019305D3193DEF601
S11309B0CF010895462F4770405D4193B3E00FD0B7
S11309C0C9F7F6CF462F4F70405D4A3318F0495DA2
S11309D031FD4052419302D0A9F7EACFB4E0A69585
S11309E09795879577956795BA95C9F700976105A7
S11309F0710508959B01AC010A2E069457954795FD
S1130A0037952795BA95C9F7620F731F841F951FF1
S1130A10A01D08952F923F924F925F926F927F9202
S1130A208F929F92AF92BF92CF92DF92EF92FF92FA
S1130A300F931F93CF93DF93CDB7DEB7CA1BDB0BA6
S1130A400FB6F894DEBF0FBECDBF09942A8839884B
S1130A5048885F846E847D848C849B84AA84B98452
S1130A60C884DF80EE80FD800C811B81AA81B9815E
S1130A70CE0FD11D0FB6F894DEBF0FBECDBFED0172
S1090A800895F894FFCF75
S1130A86010044697374616E636520697320256C83
S1090A967520636D0000F1
S9030000FC
